{
  "contractName": "RentalEverything",
  "abi": [
    {
      "constant": true,
      "inputs": [
        {
          "name": "",
          "type": "uint256"
        }
      ],
      "name": "Items",
      "outputs": [
        {
          "name": "lender",
          "type": "address"
        },
        {
          "name": "currentBorrower",
          "type": "address"
        },
        {
          "name": "name",
          "type": "string"
        },
        {
          "name": "description",
          "type": "string"
        },
        {
          "name": "lenderAddress",
          "type": "string"
        },
        {
          "name": "deposit",
          "type": "uint256"
        },
        {
          "name": "rentalFee",
          "type": "uint256"
        },
        {
          "name": "dealCount",
          "type": "uint256"
        },
        {
          "name": "state",
          "type": "uint8"
        },
        {
          "name": "image",
          "type": "string"
        }
      ],
      "payable": false,
      "stateMutability": "view",
      "type": "function",
      "signature": "0x17b47cc4"
    },
    {
      "constant": true,
      "inputs": [],
      "name": "itemId",
      "outputs": [
        {
          "name": "",
          "type": "uint256"
        }
      ],
      "payable": false,
      "stateMutability": "view",
      "type": "function",
      "signature": "0xca6158cb"
    },
    {
      "anonymous": false,
      "inputs": [
        {
          "indexed": false,
          "name": "itemId",
          "type": "uint256"
        }
      ],
      "name": "ExhibitDone",
      "type": "event",
      "signature": "0x73023c370d5ed730e8cc7a99a97cb6cbde62283b4fb0eceb03e42ab4b712fe48"
    },
    {
      "constant": false,
      "inputs": [
        {
          "name": "_name",
          "type": "string"
        },
        {
          "name": "_description",
          "type": "string"
        },
        {
          "name": "_lenderAddress",
          "type": "string"
        },
        {
          "name": "_deposit",
          "type": "uint256"
        },
        {
          "name": "_rentalFee",
          "type": "uint256"
        },
        {
          "name": "imageURL",
          "type": "string"
        }
      ],
      "name": "exhibit",
      "outputs": [
        {
          "name": "",
          "type": "uint256"
        }
      ],
      "payable": false,
      "stateMutability": "nonpayable",
      "type": "function",
      "signature": "0x75ad5215"
    },
    {
      "constant": false,
      "inputs": [
        {
          "name": "_itemId",
          "type": "uint256"
        },
        {
          "name": "_borrowerAddress",
          "type": "string"
        }
      ],
      "name": "borrowRequest",
      "outputs": [
        {
          "name": "",
          "type": "uint256"
        }
      ],
      "payable": true,
      "stateMutability": "payable",
      "type": "function",
      "signature": "0xc261d07c"
    },
    {
      "constant": false,
      "inputs": [
        {
          "name": "_numDeals",
          "type": "uint256"
        },
        {
          "name": "_trackingNumber1",
          "type": "uint256"
        }
      ],
      "name": "shipping",
      "outputs": [],
      "payable": false,
      "stateMutability": "nonpayable",
      "type": "function",
      "signature": "0xd8b4ca4a"
    },
    {
      "constant": false,
      "inputs": [
        {
          "name": "_numDeals",
          "type": "uint256"
        }
      ],
      "name": "borrowRequestUnapproved",
      "outputs": [],
      "payable": false,
      "stateMutability": "nonpayable",
      "type": "function",
      "signature": "0x88c178ef"
    },
    {
      "constant": false,
      "inputs": [
        {
          "name": "_numDeals",
          "type": "uint256"
        },
        {
          "name": "_trackingNumber2",
          "type": "uint256"
        }
      ],
      "name": "sendback",
      "outputs": [],
      "payable": false,
      "stateMutability": "nonpayable",
      "type": "function",
      "signature": "0x89b3d085"
    },
    {
      "constant": false,
      "inputs": [
        {
          "name": "_numDeals",
          "type": "uint256"
        }
      ],
      "name": "sell",
      "outputs": [],
      "payable": false,
      "stateMutability": "nonpayable",
      "type": "function",
      "signature": "0xe4849b32"
    },
    {
      "constant": false,
      "inputs": [
        {
          "name": "_numDeals",
          "type": "uint256"
        }
      ],
      "name": "completeDeal",
      "outputs": [],
      "payable": false,
      "stateMutability": "nonpayable",
      "type": "function",
      "signature": "0xdec3456b"
    },
    {
      "constant": false,
      "inputs": [
        {
          "name": "_numDeals",
          "type": "uint256"
        }
      ],
      "name": "completeDealByBorrower",
      "outputs": [],
      "payable": false,
      "stateMutability": "nonpayable",
      "type": "function",
      "signature": "0xdff474eb"
    },
    {
      "constant": true,
      "inputs": [],
      "name": "getNumItem",
      "outputs": [
        {
          "name": "",
          "type": "uint256"
        }
      ],
      "payable": false,
      "stateMutability": "view",
      "type": "function",
      "signature": "0x34bc698b"
    },
    {
      "constant": true,
      "inputs": [
        {
          "name": "_itemId",
          "type": "uint256"
        }
      ],
      "name": "getItemById",
      "outputs": [
        {
          "name": "",
          "type": "address"
        },
        {
          "name": "",
          "type": "address"
        },
        {
          "name": "",
          "type": "string"
        },
        {
          "name": "",
          "type": "string"
        },
        {
          "name": "",
          "type": "string"
        },
        {
          "name": "",
          "type": "uint256"
        },
        {
          "name": "",
          "type": "uint256"
        }
      ],
      "payable": false,
      "stateMutability": "view",
      "type": "function",
      "signature": "0xcd2f0710"
    },
    {
      "constant": true,
      "inputs": [
        {
          "name": "_itemId",
          "type": "uint256"
        }
      ],
      "name": "getItemByIdForMain",
      "outputs": [
        {
          "name": "",
          "type": "string"
        },
        {
          "name": "",
          "type": "uint256"
        },
        {
          "name": "",
          "type": "uint256"
        },
        {
          "name": "",
          "type": "string"
        }
      ],
      "payable": false,
      "stateMutability": "view",
      "type": "function",
      "signature": "0x9ebbd893"
    },
    {
      "constant": true,
      "inputs": [
        {
          "name": "_itemId",
          "type": "uint256"
        }
      ],
      "name": "getNumDealsById",
      "outputs": [
        {
          "name": "",
          "type": "uint256[]"
        }
      ],
      "payable": false,
      "stateMutability": "view",
      "type": "function",
      "signature": "0xdcf4bc53"
    },
    {
      "constant": true,
      "inputs": [
        {
          "name": "_numDeals",
          "type": "uint256"
        }
      ],
      "name": "getDealByNumDeals",
      "outputs": [
        {
          "name": "",
          "type": "address"
        },
        {
          "name": "",
          "type": "string"
        },
        {
          "name": "",
          "type": "uint256"
        },
        {
          "name": "",
          "type": "uint256"
        },
        {
          "name": "",
          "type": "uint256"
        },
        {
          "name": "",
          "type": "uint256"
        },
        {
          "name": "",
          "type": "uint256"
        }
      ],
      "payable": false,
      "stateMutability": "view",
      "type": "function",
      "signature": "0x84e84363"
    }
  ],
  "bytecode": "0x60806040526000600155600060045562093a806005556212750060065534801561002857600080fd5b50612a66806100386000396000f3fe6080604052600436106100db576000357c0100000000000000000000000000000000000000000000000000000000900463ffffffff16806317b47cc4146100e057806334bc698b1461036857806375ad52151461039357806384e843631461064857806388c178ef1461075257806389b3d0851461078d5780639ebbd893146107d2578063c261d07c14610900578063ca6158cb146109d9578063cd2f071014610a04578063d8b4ca4a14610c04578063dcf4bc5314610c49578063dec3456b14610cd9578063dff474eb14610d14578063e4849b3214610d4f575b600080fd5b3480156100ec57600080fd5b506101196004803603602081101561010357600080fd5b8101908080359060200190929190505050610d8a565b604051808b73ffffffffffffffffffffffffffffffffffffffff1673ffffffffffffffffffffffffffffffffffffffff1681526020018a73ffffffffffffffffffffffffffffffffffffffff1673ffffffffffffffffffffffffffffffffffffffff1681526020018060200180602001806020018981526020018881526020018781526020018660038111156101ab57fe5b60ff1681526020018060200185810385528d818151815260200191508051906020019080838360005b838110156101ef5780820151818401526020810190506101d4565b50505050905090810190601f16801561021c5780820380516001836020036101000a031916815260200191505b5085810384528c818151815260200191508051906020019080838360005b8381101561025557808201518184015260208101905061023a565b50505050905090810190601f1680156102825780820380516001836020036101000a031916815260200191505b5085810383528b818151815260200191508051906020019080838360005b838110156102bb5780820151818401526020810190506102a0565b50505050905090810190601f1680156102e85780820380516001836020036101000a031916815260200191505b50858103825286818151815260200191508051906020019080838360005b83811015610321578082015181840152602081019050610306565b50505050905090810190601f16801561034e5780820380516001836020036101000a031916815260200191505b509e50505050505050505050505050505060405180910390f35b34801561037457600080fd5b5061037d61109a565b6040518082815260200191505060405180910390f35b34801561039f57600080fd5b50610632600480360360c08110156103b657600080fd5b81019080803590602001906401000000008111156103d357600080fd5b8201836020820111156103e557600080fd5b8035906020019184600183028401116401000000008311171561040757600080fd5b91908080601f016020809104026020016040519081016040528093929190818152602001838380828437600081840152601f19601f8201169050808301925050505050505091929192908035906020019064010000000081111561046a57600080fd5b82018360208201111561047c57600080fd5b8035906020019184600183028401116401000000008311171561049e57600080fd5b91908080601f016020809104026020016040519081016040528093929190818152602001838380828437600081840152601f19601f8201169050808301925050505050505091929192908035906020019064010000000081111561050157600080fd5b82018360208201111561051357600080fd5b8035906020019184600183028401116401000000008311171561053557600080fd5b91908080601f016020809104026020016040519081016040528093929190818152602001838380828437600081840152601f19601f8201169050808301925050505050505091929192908035906020019092919080359060200190929190803590602001906401000000008111156105ac57600080fd5b8201836020820111156105be57600080fd5b803590602001918460018302840111640100000000831117156105e057600080fd5b91908080601f016020809104026020016040519081016040528093929190818152602001838380828437600081840152601f19601f8201169050808301925050505050505091929192905050506110a4565b6040518082815260200191505060405180910390f35b34801561065457600080fd5b506106816004803603602081101561066b57600080fd5b81019080803590602001909291905050506112f3565b604051808873ffffffffffffffffffffffffffffffffffffffff1673ffffffffffffffffffffffffffffffffffffffff16815260200180602001878152602001868152602001858152602001848152602001838152602001828103825288818151815260200191508051906020019080838360005b838110156107115780820151818401526020810190506106f6565b50505050905090810190601f16801561073e5780820380516001836020036101000a031916815260200191505b509850505050505050505060405180910390f35b34801561075e57600080fd5b5061078b6004803603602081101561077557600080fd5b8101908080359060200190929190505050611477565b005b34801561079957600080fd5b506107d0600480360360408110156107b057600080fd5b810190808035906020019092919080359060200190929190505050611644565b005b3480156107de57600080fd5b5061080b600480360360208110156107f557600080fd5b81019080803590602001909291905050506117ae565b604051808060200185815260200184815260200180602001838103835287818151815260200191508051906020019080838360005b8381101561085b578082015181840152602081019050610840565b50505050905090810190601f1680156108885780820380516001836020036101000a031916815260200191505b50838103825284818151815260200191508051906020019080838360005b838110156108c15780820151818401526020810190506108a6565b50505050905090810190601f1680156108ee5780820380516001836020036101000a031916815260200191505b50965050505050505060405180910390f35b6109c36004803603604081101561091657600080fd5b81019080803590602001909291908035906020019064010000000081111561093d57600080fd5b82018360208201111561094f57600080fd5b8035906020019184600183028401116401000000008311171561097157600080fd5b91908080601f016020809104026020016040519081016040528093929190818152602001838380828437600081840152601f19601f82011690508083019250505050505050919291929050505061197e565b6040518082815260200191505060405180910390f35b3480156109e557600080fd5b506109ee611b6e565b6040518082815260200191505060405180910390f35b348015610a1057600080fd5b50610a3d60048036036020811015610a2757600080fd5b8101908080359060200190929190505050611b74565b604051808873ffffffffffffffffffffffffffffffffffffffff1673ffffffffffffffffffffffffffffffffffffffff1681526020018773ffffffffffffffffffffffffffffffffffffffff1673ffffffffffffffffffffffffffffffffffffffff168152602001806020018060200180602001868152602001858152602001848103845289818151815260200191508051906020019080838360005b83811015610af5578082015181840152602081019050610ada565b50505050905090810190601f168015610b225780820380516001836020036101000a031916815260200191505b50848103835288818151815260200191508051906020019080838360005b83811015610b5b578082015181840152602081019050610b40565b50505050905090810190601f168015610b885780820380516001836020036101000a031916815260200191505b50848103825287818151815260200191508051906020019080838360005b83811015610bc1578082015181840152602081019050610ba6565b50505050905090810190601f168015610bee5780820380516001836020036101000a031916815260200191505b509a505050505050505050505060405180910390f35b348015610c1057600080fd5b50610c4760048036036040811015610c2757600080fd5b810190808035906020019092919080359060200190929190505050611e90565b005b348015610c5557600080fd5b50610c8260048036036020811015610c6c57600080fd5b81019080803590602001909291905050506120bf565b6040518080602001828103825283818151815260200191508051906020019060200280838360005b83811015610cc5578082015181840152602081019050610caa565b505050509050019250505060405180910390f35b348015610ce557600080fd5b50610d1260048036036020811015610cfc57600080fd5b8101908080359060200190929190505050612182565b005b348015610d2057600080fd5b50610d4d60048036036020811015610d3757600080fd5b8101908080359060200190929190505050612468565b005b348015610d5b57600080fd5b50610d8860048036036020811015610d7257600080fd5b810190808035906020019092919050505061272b565b005b600081815481101515610d9957fe5b90600052602060002090600a02016000915090508060000160009054906101000a900473ffffffffffffffffffffffffffffffffffffffff16908060010160009054906101000a900473ffffffffffffffffffffffffffffffffffffffff1690806002018054600181600116156101000203166002900480601f016020809104026020016040519081016040528092919081815260200182805460018160011615610100020316600290048015610e915780601f10610e6657610100808354040283529160200191610e91565b820191906000526020600020905b815481529060010190602001808311610e7457829003601f168201915b505050505090806003018054600181600116156101000203166002900480601f016020809104026020016040519081016040528092919081815260200182805460018160011615610100020316600290048015610f2f5780601f10610f0457610100808354040283529160200191610f2f565b820191906000526020600020905b815481529060010190602001808311610f1257829003601f168201915b505050505090806004018054600181600116156101000203166002900480601f016020809104026020016040519081016040528092919081815260200182805460018160011615610100020316600290048015610fcd5780601f10610fa257610100808354040283529160200191610fcd565b820191906000526020600020905b815481529060010190602001808311610fb057829003601f168201915b5050505050908060050154908060060154908060070154908060080160009054906101000a900460ff1690806009018054600181600116156101000203166002900480601f0160208091040260200160405190810160405280929190818152602001828054600181600116156101000203166002900480156110905780601f1061106557610100808354040283529160200191611090565b820191906000526020600020905b81548152906001019060200180831161107357829003601f168201915b505050505090508a565b6000600154905090565b600080610140604051908101604052803373ffffffffffffffffffffffffffffffffffffffff1681526020013373ffffffffffffffffffffffffffffffffffffffff168152602001898152602001888152602001878152602001868152602001858152602001600081526020016000600381111561111e57fe5b8152602001848152509080600181540180825580915050906001820390600052602060002090600a02016000909192909190915060008201518160000160006101000a81548173ffffffffffffffffffffffffffffffffffffffff021916908373ffffffffffffffffffffffffffffffffffffffff16021790555060208201518160010160006101000a81548173ffffffffffffffffffffffffffffffffffffffff021916908373ffffffffffffffffffffffffffffffffffffffff16021790555060408201518160020190805190602001906111fc929190612915565b506060820151816003019080519060200190611219929190612915565b506080820151816004019080519060200190611236929190612915565b5060a0820151816005015560c0820151816006015560e082015181600701556101008201518160080160006101000a81548160ff0219169083600381111561127a57fe5b021790555061012082015181600901908051906020019061129c929190612915565b50505050600180600082825401925050819055507f73023c370d5ed730e8cc7a99a97cb6cbde62283b4fb0eceb03e42ab4b712fe486001546040518082815260200191505060405180910390a19695505050505050565b6000606060008060008060006002600089815260200190815260200160002060000160009054906101000a900473ffffffffffffffffffffffffffffffffffffffff16600260008a8152602001908152602001600020600101600260008b815260200190815260200160002060020154600260008c815260200190815260200160002060030154600260008d815260200190815260200160002060040154600260008e815260200190815260200160002060050154600260008f815260200190815260200160002060060154869650858054600181600116156101000203166002900480601f0160208091040260200160405190810160405280929190818152602001828054600181600116156101000203166002900480156114575780601f1061142c57610100808354040283529160200191611457565b820191906000526020600020905b81548152906001019060200180831161143a57829003601f168201915b505050505095509650965096509650965096509650919395979092949650565b803373ffffffffffffffffffffffffffffffffffffffff166002600083815260200190815260200160002060000160009054906101000a900473ffffffffffffffffffffffffffffffffffffffff1673ffffffffffffffffffffffffffffffffffffffff161415156114e857600080fd5b600160038111156114f557fe5b6000600360008581526020019081526020016000205481548110151561151757fe5b90600052602060002090600a020160080160009054906101000a900460ff16600381111561154157fe5b148015611564575042600260008481526020019081526020016000206004015411155b8015611586575060006002600084815260200190815260200160002060020154145b151561159157600080fd5b3373ffffffffffffffffffffffffffffffffffffffff166108fc600060036000868152602001908152602001600020548154811015156115cd57fe5b90600052602060002090600a0201600601546000600360008781526020019081526020016000205481548110151561160157fe5b90600052602060002090600a020160050154019081150290604051600060405180830381858888f1935050505015801561163f573d6000803e3d6000fd5b505050565b813373ffffffffffffffffffffffffffffffffffffffff166002600083815260200190815260200160002060000160009054906101000a900473ffffffffffffffffffffffffffffffffffffffff1673ffffffffffffffffffffffffffffffffffffffff161415156116b557600080fd5b600260038111156116c257fe5b600060036000868152602001908152602001600020548154811015156116e457fe5b90600052602060002090600a020160080160009054906101000a900460ff16600381111561170e57fe5b14151561171a57600080fd5b60036000600360008681526020019081526020016000205481548110151561173e57fe5b90600052602060002090600a020160080160006101000a81548160ff0219169083600381111561176a57fe5b021790555081600260008581526020019081526020016000206003018190555060055442016002600085815260200190815260200160002060060181905550505050565b606060008060606000858154811015156117c457fe5b90600052602060002090600a02016002016000868154811015156117e457fe5b90600052602060002090600a02016005015460008781548110151561180557fe5b90600052602060002090600a02016006015460008881548110151561182657fe5b90600052602060002090600a0201600901838054600181600116156101000203166002900480601f0160208091040260200160405190810160405280929190818152602001828054600181600116156101000203166002900480156118cc5780601f106118a1576101008083540402835291602001916118cc565b820191906000526020600020905b8154815290600101906020018083116118af57829003601f168201915b50505050509350808054600181600116156101000203166002900480601f0160208091040260200160405190810160405280929190818152602001828054600181600116156101000203166002900480156119685780601f1061193d57610100808354040283529160200191611968565b820191906000526020600020905b81548152906001019060200180831161194b57829003601f168201915b5050505050905093509350935093509193509193565b600080600381111561198c57fe5b60008481548110151561199b57fe5b90600052602060002090600a020160080160009054906101000a900460ff1660038111156119c557fe5b148015611a1457506000838154811015156119dc57fe5b90600052602060002090600a0201600601546000848154811015156119fd57fe5b90600052602060002090600a020160050154013410155b1515611a1f57600080fd5b6001600084815481101515611a3057fe5b90600052602060002090600a02016007016000828254019250508190555082600360006004548152602001908152602001600020819055503360026000600454815260200190815260200160002060000160006101000a81548173ffffffffffffffffffffffffffffffffffffffff021916908373ffffffffffffffffffffffffffffffffffffffff160217905550816002600060045481526020019081526020016000206001019080519060200190611aeb929190612995565b506005544201600260006004548152602001908152602001600020600401819055506001600084815481101515611b1e57fe5b90600052602060002090600a020160080160006101000a81548160ff02191690836003811115611b4a57fe5b02179055506001600460008282540192505081905550600160045403905092915050565b60015481565b6000806060806060600080600088815481101515611b8e57fe5b90600052602060002090600a020160000160009054906101000a900473ffffffffffffffffffffffffffffffffffffffff16600089815481101515611bcf57fe5b90600052602060002090600a020160010160009054906101000a900473ffffffffffffffffffffffffffffffffffffffff1660008a815481101515611c1057fe5b90600052602060002090600a020160020160008b815481101515611c3057fe5b90600052602060002090600a020160030160008c815481101515611c5057fe5b90600052602060002090600a020160040160008d815481101515611c7057fe5b90600052602060002090600a02016005015460008e815481101515611c9157fe5b90600052602060002090600a020160060154848054600181600116156101000203166002900480601f016020809104026020016040519081016040528092919081815260200182805460018160011615610100020316600290048015611d385780601f10611d0d57610100808354040283529160200191611d38565b820191906000526020600020905b815481529060010190602001808311611d1b57829003601f168201915b50505050509450838054600181600116156101000203166002900480601f016020809104026020016040519081016040528092919081815260200182805460018160011615610100020316600290048015611dd45780601f10611da957610100808354040283529160200191611dd4565b820191906000526020600020905b815481529060010190602001808311611db757829003601f168201915b50505050509350828054600181600116156101000203166002900480601f016020809104026020016040519081016040528092919081815260200182805460018160011615610100020316600290048015611e705780601f10611e4557610100808354040283529160200191611e70565b820191906000526020600020905b815481529060010190602001808311611e5357829003601f168201915b505050505092509650965096509650965096509650919395979092949650565b813373ffffffffffffffffffffffffffffffffffffffff1660006003600084815260200190815260200160002054815481101515611eca57fe5b90600052602060002090600a020160000160009054906101000a900473ffffffffffffffffffffffffffffffffffffffff1673ffffffffffffffffffffffffffffffffffffffff16141515611f1e57600080fd5b60016003811115611f2b57fe5b60006003600086815260200190815260200160002054815481101515611f4d57fe5b90600052602060002090600a020160080160009054906101000a900460ff166003811115611f7757fe5b141515611f8357600080fd5b600260006003600086815260200190815260200160002054815481101515611fa757fe5b90600052602060002090600a020160080160006101000a81548160ff02191690836003811115611fd357fe5b02179055506002600084815260200190815260200160002060000160009054906101000a900473ffffffffffffffffffffffffffffffffffffffff166000600360008681526020019081526020016000205481548110151561203157fe5b90600052602060002090600a020160010160006101000a81548173ffffffffffffffffffffffffffffffffffffffff021916908373ffffffffffffffffffffffffffffffffffffffff16021790555081600260008581526020019081526020016000206002018190555060065442016002600085815260200190815260200160002060050181905550505050565b6060806000838154811015156120d157fe5b90600052602060002090600a0201600701546040519080825280602002602001820160405280156121115781602001602082028038833980820191505090505b509050600080905060008090505b60045481101561217757846003600083815260200190815260200160002054141561216a5780838381518110151561215357fe5b906020019060200201818152505081806001019250505b808060010191505061211f565b508192505050919050565b803373ffffffffffffffffffffffffffffffffffffffff16600060036000848152602001908152602001600020548154811015156121bc57fe5b90600052602060002090600a020160000160009054906101000a900473ffffffffffffffffffffffffffffffffffffffff1673ffffffffffffffffffffffffffffffffffffffff1614151561221057600080fd5b60038081111561221c57fe5b6000600360008581526020019081526020016000205481548110151561223e57fe5b90600052602060002090600a020160080160009054906101000a900460ff16600381111561226857fe5b14151561227457600080fd5b600080600360008581526020019081526020016000205481548110151561229757fe5b90600052602060002090600a020160080160006101000a81548160ff021916908360038111156122c357fe5b021790555033600060036000858152602001908152602001600020548154811015156122eb57fe5b90600052602060002090600a020160010160006101000a81548173ffffffffffffffffffffffffffffffffffffffff021916908373ffffffffffffffffffffffffffffffffffffffff1602179055503373ffffffffffffffffffffffffffffffffffffffff166108fc6000600360008681526020019081526020016000205481548110151561237657fe5b90600052602060002090600a0201600601549081150290604051600060405180830381858888f193505050501580156123b3573d6000803e3d6000fd5b506002600083815260200190815260200160002060000160009054906101000a900473ffffffffffffffffffffffffffffffffffffffff1673ffffffffffffffffffffffffffffffffffffffff166108fc6000600360008681526020019081526020016000205481548110151561242657fe5b90600052602060002090600a0201600501549081150290604051600060405180830381858888f19350505050158015612463573d6000803e3d6000fd5b505050565b803373ffffffffffffffffffffffffffffffffffffffff166002600083815260200190815260200160002060000160009054906101000a900473ffffffffffffffffffffffffffffffffffffffff1673ffffffffffffffffffffffffffffffffffffffff161415156124d957600080fd5b6003808111156124e557fe5b6000600360008581526020019081526020016000205481548110151561250757fe5b90600052602060002090600a020160080160009054906101000a900460ff16600381111561253157fe5b148015612554575042600260008481526020019081526020016000206006015411155b151561255f57600080fd5b600080600360008581526020019081526020016000205481548110151561258257fe5b90600052602060002090600a020160080160006101000a81548160ff021916908360038111156125ae57fe5b0217905550600060036000848152602001908152602001600020548154811015156125d557fe5b90600052602060002090600a020160000160009054906101000a900473ffffffffffffffffffffffffffffffffffffffff166000600360008581526020019081526020016000205481548110151561262957fe5b90600052602060002090600a020160010160006101000a81548173ffffffffffffffffffffffffffffffffffffffff021916908373ffffffffffffffffffffffffffffffffffffffff1602179055503373ffffffffffffffffffffffffffffffffffffffff166108fc600060036000868152602001908152602001600020548154811015156126b457fe5b90600052602060002090600a020160050154600060036000878152602001908152602001600020548154811015156126e857fe5b90600052602060002090600a020160060154019081150290604051600060405180830381858888f19350505050158015612726573d6000803e3d6000fd5b505050565b803373ffffffffffffffffffffffffffffffffffffffff166000600360008481526020019081526020016000205481548110151561276557fe5b90600052602060002090600a020160000160009054906101000a900473ffffffffffffffffffffffffffffffffffffffff1673ffffffffffffffffffffffffffffffffffffffff161415156127b957600080fd5b600260038111156127c657fe5b600060036000858152602001908152602001600020548154811015156127e857fe5b90600052602060002090600a020160080160009054906101000a900460ff16600381111561281257fe5b148015612835575042600260008481526020019081526020016000206005015411155b8015612857575060006002600084815260200190815260200160002060030154145b151561286257600080fd5b3373ffffffffffffffffffffffffffffffffffffffff166108fc6000600360008681526020019081526020016000205481548110151561289e57fe5b90600052602060002090600a020160060154600060036000878152602001908152602001600020548154811015156128d257fe5b90600052602060002090600a020160050154019081150290604051600060405180830381858888f19350505050158015612910573d6000803e3d6000fd5b505050565b828054600181600116156101000203166002900490600052602060002090601f016020900481019282601f1061295657805160ff1916838001178555612984565b82800160010185558215612984579182015b82811115612983578251825591602001919060010190612968565b5b5090506129919190612a15565b5090565b828054600181600116156101000203166002900490600052602060002090601f016020900481019282601f106129d657805160ff1916838001178555612a04565b82800160010185558215612a04579182015b82811115612a035782518255916020019190600101906129e8565b5b509050612a119190612a15565b5090565b612a3791905b80821115612a33576000816000905550600101612a1b565b5090565b9056fea165627a7a7230582010b5b53667c0ccef39edd129dff3733afab8164abbf09f085203037b84eead4f0029",
  "source": "pragma solidity ^0.5.0;\r\n\r\ncontract RentalEverything {\r\n\r\n    enum StateType {\r\n        Available,\r\n        BorrowRequestPending,\r\n        Shipping,\r\n        SendingBack\r\n    }\r\n\r\n    struct Item {\r\n        address lender; //ETH\r\n        address currentBorrower;//\r\n        string name; //\r\n        string description; //\r\n        string lenderAddress;//\r\n        uint deposit;\r\n        uint rentalFee;\r\n        uint dealCount;//deal\r\n        StateType state; //\r\n        string image; //google drive ID\r\n    }\r\n\r\n    Item[] public Items;\r\n    uint public itemId = 0;\r\n\r\n    struct Deal {\r\n        address payable borrower;//ETH\r\n        string borrowerAddress;//\r\n        uint trackingNumber1;//\r\n        uint trackingNumber2;//\r\n        uint deadline1;//\r\n        uint deadline2;//\r\n        uint deadline3;//\r\n    }\r\n\r\n    mapping (uint => Deal) Deals;//numDealsDeal\r\n    mapping (uint => uint) dealToItem;//numDealsitemId\r\n\r\n    event ExhibitDone(uint itemId);\r\n\r\n    //\r\n    function exhibit (string memory _name, string memory _description, string memory _lenderAddress, uint _deposit, uint _rentalFee, string memory imageURL) public returns(uint) {\r\n        Items.push(Item(msg.sender, msg.sender, _name, _description, _lenderAddress, _deposit, _rentalFee, 0, StateType.Available, imageURL));\r\n        itemId += 1;\r\n        emit ExhibitDone(itemId);\r\n    }\r\n\r\n\r\n\r\n    uint numDeals = 0;\r\n    uint validPeriod = 7 days;\r\n    //\r\n    function borrowRequest (uint _itemId, string memory _borrowerAddress) public payable returns(uint) {\r\n        require (Items[_itemId].state == StateType.Available && msg.value >= Items[_itemId].deposit + Items[_itemId].rentalFee);\r\n            Items[_itemId].dealCount += 1;\r\n            dealToItem[numDeals] = _itemId;\r\n            Deals[numDeals].borrower = msg.sender;\r\n            Deals[numDeals].borrowerAddress = _borrowerAddress;\r\n            Deals[numDeals].deadline1 = now + validPeriod;\r\n            Items[_itemId].state = StateType.BorrowRequestPending;\r\n            numDeals += 1;\r\n            return numDeals - 1;\r\n    }\r\n\r\n\r\n    uint rentalPeriod = 14 days;\r\n    //\r\n    function shipping (uint _numDeals, uint _trackingNumber1) public onlyLender(_numDeals) {\r\n        require (Items[dealToItem[_numDeals]].state == StateType.BorrowRequestPending);\r\n            Items[dealToItem[_numDeals]].state = StateType.Shipping;\r\n            Items[dealToItem[_numDeals]].currentBorrower = Deals[_numDeals].borrower;\r\n            Deals[_numDeals].trackingNumber1 = _trackingNumber1;\r\n            Deals[_numDeals].deadline2 = now + rentalPeriod;\r\n    }\r\n\r\n    //\r\n    function borrowRequestUnapproved (uint _numDeals) public onlyBorrower(_numDeals) {\r\n        require (Items[dealToItem[_numDeals]].state == StateType.BorrowRequestPending && Deals[_numDeals].deadline1 <= now && Deals[_numDeals].trackingNumber1 == 0);//uint0\r\n            msg.sender.transfer(Items[dealToItem[_numDeals]].deposit + Items[dealToItem[_numDeals]].rentalFee);\r\n    }\r\n\r\n\r\n    //\r\n    function sendback (uint _numDeals, uint _trackingNumber2) public onlyBorrower (_numDeals) {\r\n        require (Items[dealToItem[_numDeals]].state == StateType.Shipping);\r\n            Items[dealToItem[_numDeals]].state = StateType.SendingBack;\r\n            Deals[_numDeals].trackingNumber2 = _trackingNumber2;\r\n            Deals[_numDeals].deadline3 = now +validPeriod;\r\n    }\r\n\r\n    //\r\n    function sell (uint _numDeals) public onlyLender(_numDeals) {\r\n        require (Items[dealToItem[_numDeals]].state == StateType.Shipping && Deals[_numDeals].deadline2 <= now && Deals[_numDeals].trackingNumber2 ==0);\r\n            msg.sender.transfer(Items[dealToItem[_numDeals]].deposit + Items[dealToItem[_numDeals]].rentalFee);\r\n    }\r\n\r\n    //\r\n    function completeDeal (uint _numDeals ) public onlyLender (_numDeals) {\r\n        require (Items[dealToItem[_numDeals]].state == StateType.SendingBack);\r\n            Items[dealToItem[_numDeals]].state = StateType.Available;\r\n            Items[dealToItem[_numDeals]].currentBorrower = msg.sender;\r\n            msg.sender.transfer(Items[dealToItem[_numDeals]].rentalFee);\r\n            Deals[_numDeals].borrower.transfer(Items[dealToItem[_numDeals]].deposit);\r\n    }\r\n\r\n    //\r\n    function completeDealByBorrower (uint _numDeals) public onlyBorrower(_numDeals) {\r\n        require (Items[dealToItem[_numDeals]].state == StateType.SendingBack && Deals[_numDeals].deadline3 <= now);\r\n            Items[dealToItem[_numDeals]].state = StateType.Available;\r\n            Items[dealToItem[_numDeals]].currentBorrower = Items[dealToItem[_numDeals]].lender;\r\n            msg.sender.transfer(Items[dealToItem[_numDeals]].rentalFee + Items[dealToItem[_numDeals]].deposit);\r\n    }\r\n\r\n    //modifier\r\n    modifier onlyLender (uint _numDeals) {\r\n        require (Items[dealToItem[_numDeals]].lender == msg.sender);\r\n        _;\r\n    }\r\n\r\n    modifier onlyBorrower (uint _numDeals) {\r\n        require (Deals[_numDeals].borrower == msg.sender);\r\n        _;\r\n    }\r\n\r\n\r\n\r\n//helper\r\n  function getNumItem() public view returns (uint) {\r\n    return itemId;\r\n  }\r\n\r\n\r\n  //IdItem\r\n  function getItemById(uint _itemId) public view returns(address, address, string memory, string memory, string memory, uint, uint) {\r\n    return (Items[_itemId].lender, Items[_itemId].currentBorrower, Items[_itemId].name, Items[_itemId].description, Items[_itemId].lenderAddress, Items[_itemId].deposit, Items[_itemId].rentalFee);\r\n  }\r\n\r\n  function getItemByIdForMain(uint _itemId) public view returns(string memory, uint, uint, string memory) {\r\n    return (Items[_itemId].name, Items[_itemId].deposit, Items[_itemId].rentalFee, Items[_itemId].image);\r\n  }\r\n\r\n  //ItemIdnumDeals\r\n  function getNumDealsById(uint _itemId) public view returns(uint[] memory) {\r\n    uint[] memory result = new uint[](Items[_itemId].dealCount);\r\n    uint count = 0;\r\n    for(uint i = 0; i < numDeals; i++){\r\n      if(dealToItem[i] == _itemId){\r\n        result[count] = i;\r\n        count++;\r\n      }\r\n    }\r\n    return result;\r\n  }\r\n\r\n  function getDealByNumDeals(uint _numDeals) public view returns(address, string memory, uint, uint, uint, uint, uint ){\r\n    return (Deals[_numDeals].borrower,\r\n      Deals[_numDeals].borrowerAddress,\r\n      Deals[_numDeals].trackingNumber1,\r\n      Deals[_numDeals].trackingNumber2,\r\n      Deals[_numDeals].deadline1,\r\n      Deals[_numDeals].deadline2,\r\n      Deals[_numDeals].deadline3);\r\n  }\r\n\r\n}\r\n",
  "sourcePath": "C:/Users/daiki/dapps/utbc/contracts/RentalEverything.sol",
  "compiler": {
    "name": "solc",
    "version": "0.5.0+commit.1d4f565a.Emscripten.clang"
  },
  "schemaVersion": "3.0.1",
  "updatedAt": "2019-08-29T06:16:22.287Z",
  "devdoc": {
    "methods": {}
  },
  "userdoc": {
    "methods": {}
  }
}